:020000040000FA
:060000000A128A110C280F
:10000800FE00030EF6000A08F7000A128A11662994
:100018000A128A110F28F801F901FA01FB01FC0103
:10002800FD0183120313BE01BF01C001C101C2015A
:10003800C301C401C501C601C70183010A128A119F
:10004800F42800307804F20000307904F30000301E
:100058007A04F40080307B04F50075087404730496
:10006800720403193828392849287D08F3007C08C8
:10007800F2000310F20DF30D7208013EFC00730844
:100088000318013E003EFD0062287808F200790856
:10009800F3007A08F4007B08F50001300310F20D34
:1000A800F30DF40DF50DFF3E031D52287508FB00F6
:1000B8007408FA007308F9007208F8000330710236
:1000C80016300319700203186A286B287B287D08EC
:1000D800F3007C08F2000310F20DF30D7208013EE4
:1000E800FC0073080318013E003EFD0094287808C0
:1000F800F2007908F3007A08F4007B08F500013073
:100108000310F20DF30DF40DF50DFF3E031D8428C9
:100118007508FB007408FA007308F9007208F80003
:100128000800F03083120313B6000030B500003029
:10013800B4000030B300B701FF307C05AB000330DA
:100148007D05AC002B0A033003192C06031DAD28CE
:10015800AE28C72801307805AB0002307905AC001D
:1001680004307A05AD00F8307B05AE00F0302E067D
:100178002B042C042D04031DC228C328C72883126E
:100188000313B701B70A831203133708AB00AC0196
:100198002B08B8002C08B900380839040319D528E9
:1001A800D628ED287B08C1007A08C0007908BF006E
:1001B8007808BE000A128A11D0210A128A110A127E
:1001C8008A11E4210A128A110A128A1141210A129B
:1001D8008A11831203133908AA003808A9000800F5
:1001E8000A128A1186210A128A110A128A11952086
:1001F8000A128A118312031329082A0403190529EC
:100208000629F9280A128A1141210A128A11831231
:100218000313BA003A08C7000A128A11E4210A1225
:100228008A1183120313BA003A08C6000A128A1107
:10023800D0210A128A1183120313BA003A08C500A2
:1002480047084607BA00BB01BB0D3B08BD0045087F
:100258003A02BC00031CBD033C033D04031D3529C1
:100268003629392932308500F9280530BA003A088C
:100278008507F9280A128A110C28831203133E08ED
:10028800A0003F08A1004008A2004108A3001330C5
:100298000310A30CA20CA10CA00CFF3E031D4C29BB
:1002A8002308A7002208A6002108A5002008A4000A
:1002B8002408A0002008A8002808A0002008C300DF
:1002C80028080800831203130F08F1000E08F00035
:1002D8000A128A1125200A128A11831203130D1C8F
:1002E800762977297F290A128A11B3210A128A11DD
:1002F800831203130D1077088A00760E8300FE0E12
:100308007E0E09000A128A11C2210A128A110530CA
:100318000A128A11DB210A128A110A128A11FF2194
:100328000A128A110A128A11FD210A128A110A1266
:100338008A11ED210A128A11831203130D14080081
:100348000A128A11ED210A128A11831203138F01EE
:100358008E010A128A11E9210A128A1108000A126A
:100368008A11F9210A128A11831203138F018E014F
:100378000A128A11F5210A128A110800831203133E
:100388000C100A128A11A4210A128A110A128A115F
:10039800F1210A128A110800831203133E08A000F3
:1003A8000310200CA1002108A200220808008312D3
:1003B8000313A0001D082006F03920069D00080040
:1003C80083120313C40100300800831603130C14AE
:1003D8000800831603130C1008008312031310146B
:1003E8000800831603130C140800831603130C105B
:0A03F80008000B1708008B1708001F
:00000001FF
